{
  "_format": "hh-sol-artifact-1",
  "contractName": "CKESConverter",
  "sourceName": "contracts/CKESConverter.sol",
  "abi": [
    {
      "inputs": [
        {
          "internalType": "address",
          "name": "_cUSD",
          "type": "address"
        }
      ],
      "stateMutability": "nonpayable",
      "type": "constructor"
    },
    {
      "inputs": [
        {
          "internalType": "address",
          "name": "spender",
          "type": "address"
        },
        {
          "internalType": "uint256",
          "name": "allowance",
          "type": "uint256"
        },
        {
          "internalType": "uint256",
          "name": "needed",
          "type": "uint256"
        }
      ],
      "name": "ERC20InsufficientAllowance",
      "type": "error"
    },
    {
      "inputs": [
        {
          "internalType": "address",
          "name": "sender",
          "type": "address"
        },
        {
          "internalType": "uint256",
          "name": "balance",
          "type": "uint256"
        },
        {
          "internalType": "uint256",
          "name": "needed",
          "type": "uint256"
        }
      ],
      "name": "ERC20InsufficientBalance",
      "type": "error"
    },
    {
      "inputs": [
        {
          "internalType": "address",
          "name": "approver",
          "type": "address"
        }
      ],
      "name": "ERC20InvalidApprover",
      "type": "error"
    },
    {
      "inputs": [
        {
          "internalType": "address",
          "name": "receiver",
          "type": "address"
        }
      ],
      "name": "ERC20InvalidReceiver",
      "type": "error"
    },
    {
      "inputs": [
        {
          "internalType": "address",
          "name": "sender",
          "type": "address"
        }
      ],
      "name": "ERC20InvalidSender",
      "type": "error"
    },
    {
      "inputs": [
        {
          "internalType": "address",
          "name": "spender",
          "type": "address"
        }
      ],
      "name": "ERC20InvalidSpender",
      "type": "error"
    },
    {
      "inputs": [],
      "name": "EnforcedPause",
      "type": "error"
    },
    {
      "inputs": [],
      "name": "ExpectedPause",
      "type": "error"
    },
    {
      "inputs": [
        {
          "internalType": "address",
          "name": "owner",
          "type": "address"
        }
      ],
      "name": "OwnableInvalidOwner",
      "type": "error"
    },
    {
      "inputs": [
        {
          "internalType": "address",
          "name": "account",
          "type": "address"
        }
      ],
      "name": "OwnableUnauthorizedAccount",
      "type": "error"
    },
    {
      "inputs": [],
      "name": "ReentrancyGuardReentrantCall",
      "type": "error"
    },
    {
      "anonymous": false,
      "inputs": [
        {
          "indexed": true,
          "internalType": "address",
          "name": "owner",
          "type": "address"
        },
        {
          "indexed": true,
          "internalType": "address",
          "name": "spender",
          "type": "address"
        },
        {
          "indexed": false,
          "internalType": "uint256",
          "name": "value",
          "type": "uint256"
        }
      ],
      "name": "Approval",
      "type": "event"
    },
    {
      "anonymous": false,
      "inputs": [
        {
          "indexed": true,
          "internalType": "address",
          "name": "user",
          "type": "address"
        },
        {
          "indexed": false,
          "internalType": "uint256",
          "name": "cKESAmount",
          "type": "uint256"
        },
        {
          "indexed": false,
          "internalType": "string",
          "name": "fiatPaymentDetails",
          "type": "string"
        }
      ],
      "name": "CKESToFiat",
      "type": "event"
    },
    {
      "anonymous": false,
      "inputs": [
        {
          "indexed": true,
          "internalType": "address",
          "name": "user",
          "type": "address"
        },
        {
          "indexed": false,
          "internalType": "uint256",
          "name": "cKESAmount",
          "type": "uint256"
        },
        {
          "indexed": false,
          "internalType": "string",
          "name": "fiatTransactionId",
          "type": "string"
        }
      ],
      "name": "FiatToCKES",
      "type": "event"
    },
    {
      "anonymous": false,
      "inputs": [
        {
          "indexed": true,
          "internalType": "address",
          "name": "previousOwner",
          "type": "address"
        },
        {
          "indexed": true,
          "internalType": "address",
          "name": "newOwner",
          "type": "address"
        }
      ],
      "name": "OwnershipTransferred",
      "type": "event"
    },
    {
      "anonymous": false,
      "inputs": [
        {
          "indexed": false,
          "internalType": "address",
          "name": "account",
          "type": "address"
        }
      ],
      "name": "Paused",
      "type": "event"
    },
    {
      "anonymous": false,
      "inputs": [
        {
          "indexed": true,
          "internalType": "address",
          "name": "from",
          "type": "address"
        },
        {
          "indexed": true,
          "internalType": "address",
          "name": "to",
          "type": "address"
        },
        {
          "indexed": false,
          "internalType": "uint256",
          "name": "value",
          "type": "uint256"
        }
      ],
      "name": "Transfer",
      "type": "event"
    },
    {
      "anonymous": false,
      "inputs": [
        {
          "indexed": false,
          "internalType": "address",
          "name": "account",
          "type": "address"
        }
      ],
      "name": "Unpaused",
      "type": "event"
    },
    {
      "inputs": [
        {
          "internalType": "address",
          "name": "owner",
          "type": "address"
        },
        {
          "internalType": "address",
          "name": "spender",
          "type": "address"
        }
      ],
      "name": "allowance",
      "outputs": [
        {
          "internalType": "uint256",
          "name": "",
          "type": "uint256"
        }
      ],
      "stateMutability": "view",
      "type": "function"
    },
    {
      "inputs": [
        {
          "internalType": "address",
          "name": "spender",
          "type": "address"
        },
        {
          "internalType": "uint256",
          "name": "value",
          "type": "uint256"
        }
      ],
      "name": "approve",
      "outputs": [
        {
          "internalType": "bool",
          "name": "",
          "type": "bool"
        }
      ],
      "stateMutability": "nonpayable",
      "type": "function"
    },
    {
      "inputs": [
        {
          "internalType": "address",
          "name": "account",
          "type": "address"
        }
      ],
      "name": "balanceOf",
      "outputs": [
        {
          "internalType": "uint256",
          "name": "",
          "type": "uint256"
        }
      ],
      "stateMutability": "view",
      "type": "function"
    },
    {
      "inputs": [],
      "name": "cUSD",
      "outputs": [
        {
          "internalType": "contract IERC20",
          "name": "",
          "type": "address"
        }
      ],
      "stateMutability": "view",
      "type": "function"
    },
    {
      "inputs": [],
      "name": "decimals",
      "outputs": [
        {
          "internalType": "uint8",
          "name": "",
          "type": "uint8"
        }
      ],
      "stateMutability": "view",
      "type": "function"
    },
    {
      "inputs": [],
      "name": "name",
      "outputs": [
        {
          "internalType": "string",
          "name": "",
          "type": "string"
        }
      ],
      "stateMutability": "view",
      "type": "function"
    },
    {
      "inputs": [
        {
          "internalType": "uint256",
          "name": "cKESAmount",
          "type": "uint256"
        },
        {
          "internalType": "string",
          "name": "fiatPaymentDetails",
          "type": "string"
        }
      ],
      "name": "offRamp",
      "outputs": [],
      "stateMutability": "nonpayable",
      "type": "function"
    },
    {
      "inputs": [
        {
          "internalType": "string",
          "name": "fiatTransactionId",
          "type": "string"
        },
        {
          "internalType": "uint256",
          "name": "fiatAmountKES",
          "type": "uint256"
        }
      ],
      "name": "onRamp",
      "outputs": [],
      "stateMutability": "nonpayable",
      "type": "function"
    },
    {
      "inputs": [],
      "name": "owner",
      "outputs": [
        {
          "internalType": "address",
          "name": "",
          "type": "address"
        }
      ],
      "stateMutability": "view",
      "type": "function"
    },
    {
      "inputs": [],
      "name": "pause",
      "outputs": [],
      "stateMutability": "nonpayable",
      "type": "function"
    },
    {
      "inputs": [],
      "name": "paused",
      "outputs": [
        {
          "internalType": "bool",
          "name": "",
          "type": "bool"
        }
      ],
      "stateMutability": "view",
      "type": "function"
    },
    {
      "inputs": [],
      "name": "renounceOwnership",
      "outputs": [],
      "stateMutability": "nonpayable",
      "type": "function"
    },
    {
      "inputs": [],
      "name": "symbol",
      "outputs": [
        {
          "internalType": "string",
          "name": "",
          "type": "string"
        }
      ],
      "stateMutability": "view",
      "type": "function"
    },
    {
      "inputs": [],
      "name": "totalSupply",
      "outputs": [
        {
          "internalType": "uint256",
          "name": "",
          "type": "uint256"
        }
      ],
      "stateMutability": "view",
      "type": "function"
    },
    {
      "inputs": [
        {
          "internalType": "address",
          "name": "to",
          "type": "address"
        },
        {
          "internalType": "uint256",
          "name": "value",
          "type": "uint256"
        }
      ],
      "name": "transfer",
      "outputs": [
        {
          "internalType": "bool",
          "name": "",
          "type": "bool"
        }
      ],
      "stateMutability": "nonpayable",
      "type": "function"
    },
    {
      "inputs": [
        {
          "internalType": "address",
          "name": "from",
          "type": "address"
        },
        {
          "internalType": "address",
          "name": "to",
          "type": "address"
        },
        {
          "internalType": "uint256",
          "name": "value",
          "type": "uint256"
        }
      ],
      "name": "transferFrom",
      "outputs": [
        {
          "internalType": "bool",
          "name": "",
          "type": "bool"
        }
      ],
      "stateMutability": "nonpayable",
      "type": "function"
    },
    {
      "inputs": [
        {
          "internalType": "address",
          "name": "newOwner",
          "type": "address"
        }
      ],
      "name": "transferOwnership",
      "outputs": [],
      "stateMutability": "nonpayable",
      "type": "function"
    },
    {
      "inputs": [],
      "name": "unpause",
      "outputs": [],
      "stateMutability": "nonpayable",
      "type": "function"
    }
  ],
  "bytecode": "0x60806040523480156200001157600080fd5b506040516200248b3803806200248b833981810160405281019062000037919062000341565b336040518060400160405280600781526020017f43656c6f4b4553000000000000000000000000000000000000000000000000008152506040518060400160405280600481526020017f434b4553000000000000000000000000000000000000000000000000000000008152508160039081620000b59190620005ed565b508060049081620000c79190620005ed565b505050600073ffffffffffffffffffffffffffffffffffffffff168173ffffffffffffffffffffffffffffffffffffffff16036200013f5760006040517f1e4fbdf7000000000000000000000000000000000000000000000000000000008152600401620001369190620006e5565b60405180910390fd5b62000150816200021160201b60201c565b5060016006819055506000600760006101000a81548160ff02191690831515021790555080600860006101000a81548173ffffffffffffffffffffffffffffffffffffffff021916908373ffffffffffffffffffffffffffffffffffffffff16021790555073642abc0c069dc5041dea5bfc155d38d844779274600760016101000a81548173ffffffffffffffffffffffffffffffffffffffff021916908373ffffffffffffffffffffffffffffffffffffffff1602179055505062000702565b6000600560009054906101000a900473ffffffffffffffffffffffffffffffffffffffff16905081600560006101000a81548173ffffffffffffffffffffffffffffffffffffffff021916908373ffffffffffffffffffffffffffffffffffffffff1602179055508173ffffffffffffffffffffffffffffffffffffffff168173ffffffffffffffffffffffffffffffffffffffff167f8be0079c531659141344cd1fd0a4f28419497f9722a3daafe3b4186f6b6457e060405160405180910390a35050565b600080fd5b600073ffffffffffffffffffffffffffffffffffffffff82169050919050565b60006200030982620002dc565b9050919050565b6200031b81620002fc565b81146200032757600080fd5b50565b6000815190506200033b8162000310565b92915050565b6000602082840312156200035a5762000359620002d7565b5b60006200036a848285016200032a565b91505092915050565b600081519050919050565b7f4e487b7100000000000000000000000000000000000000000000000000000000600052604160045260246000fd5b7f4e487b7100000000000000000000000000000000000000000000000000000000600052602260045260246000fd5b60006002820490506001821680620003f557607f821691505b6020821081036200040b576200040a620003ad565b5b50919050565b60008190508160005260206000209050919050565b60006020601f8301049050919050565b600082821b905092915050565b600060088302620004757fffffffffffffffffffffffffffffffffffffffffffffffffffffffffffffffff8262000436565b62000481868362000436565b95508019841693508086168417925050509392505050565b6000819050919050565b6000819050919050565b6000620004ce620004c8620004c28462000499565b620004a3565b62000499565b9050919050565b6000819050919050565b620004ea83620004ad565b62000502620004f982620004d5565b84845462000443565b825550505050565b600090565b620005196200050a565b62000526818484620004df565b505050565b5b818110156200054e57620005426000826200050f565b6001810190506200052c565b5050565b601f8211156200059d57620005678162000411565b620005728462000426565b8101602085101562000582578190505b6200059a620005918562000426565b8301826200052b565b50505b505050565b600082821c905092915050565b6000620005c260001984600802620005a2565b1980831691505092915050565b6000620005dd8383620005af565b9150826002028217905092915050565b620005f88262000373565b67ffffffffffffffff8111156200061457620006136200037e565b5b620006208254620003dc565b6200062d82828562000552565b600060209050601f83116001811462000665576000841562000650578287015190505b6200065c8582620005cf565b865550620006cc565b601f198416620006758662000411565b60005b828110156200069f5784890151825560018201915060208501945060208101905062000678565b86831015620006bf5784890151620006bb601f891682620005af565b8355505b6001600288020188555050505b505050505050565b620006df81620002fc565b82525050565b6000602082019050620006fc6000830184620006d4565b92915050565b611d7980620007126000396000f3fe608060405234801561001057600080fd5b50600436106101165760003560e01c80635c975abb116100a25780638da5cb5b116100715780638da5cb5b1461029757806395d89b41146102b5578063a9059cbb146102d3578063dd62ed3e14610303578063f2fde38b1461033357610116565b80635c975abb1461023557806370a0823114610253578063715018a6146102835780638456cb591461028d57610116565b80631fccf672116100e95780631fccf672146101a357806323b872dd146101c1578063307ba08a146101f1578063313ce5671461020d5780633f4ba83a1461022b57610116565b806306fdde031461011b578063095ea7b31461013957806314f2a2101461016957806318160ddd14610185575b600080fd5b61012361034f565b60405161013091906113cd565b60405180910390f35b610153600480360381019061014e9190611497565b6103e1565b60405161016091906114f2565b60405180910390f35b610183600480360381019061017e9190611642565b610404565b005b61018d610508565b60405161019a91906116ad565b60405180910390f35b6101ab610512565b6040516101b89190611727565b60405180910390f35b6101db60048036038101906101d69190611742565b610538565b6040516101e891906114f2565b60405180910390f35b61020b60048036038101906102069190611795565b610567565b005b61021561072b565b604051610222919061180d565b60405180910390f35b610233610734565b005b61023d610746565b60405161024a91906114f2565b60405180910390f35b61026d60048036038101906102689190611828565b61075d565b60405161027a91906116ad565b60405180910390f35b61028b6107a5565b005b6102956107b9565b005b61029f6107cb565b6040516102ac9190611864565b60405180910390f35b6102bd6107f5565b6040516102ca91906113cd565b60405180910390f35b6102ed60048036038101906102e89190611497565b610887565b6040516102fa91906114f2565b60405180910390f35b61031d6004803603810190610318919061187f565b6108aa565b60405161032a91906116ad565b60405180910390f35b61034d60048036038101906103489190611828565b610931565b005b60606003805461035e906118ee565b80601f016020809104026020016040519081016040528092919081815260200182805461038a906118ee565b80156103d75780601f106103ac576101008083540402835291602001916103d7565b820191906000526020600020905b8154815290600101906020018083116103ba57829003601f168201915b5050505050905090565b6000806103ec6109b7565b90506103f98185856109bf565b600191505092915050565b61040c6109d1565b610414610a17565b60008211610457576040517f08c379a000000000000000000000000000000000000000000000000000000000815260040161044e9061196b565b60405180910390fd5b816104613361075d565b10156104a2576040517f08c379a0000000000000000000000000000000000000000000000000000000008152600401610499906119d7565b60405180910390fd5b6104ac3383610a58565b3373ffffffffffffffffffffffffffffffffffffffff167fb8510f207701fdc41d3bbe4e49a0efb7942d995878f7e1d61a6f1121a572067c83836040516104f49291906119f7565b60405180910390a2610504610ada565b5050565b6000600254905090565b600860009054906101000a900473ffffffffffffffffffffffffffffffffffffffff1681565b6000806105436109b7565b9050610550858285610ae4565b61055b858585610b78565b60019150509392505050565b61056f610c6c565b6105776109d1565b61057f610a17565b600081116105c2576040517f08c379a00000000000000000000000000000000000000000000000000000000081526004016105b990611a73565b60405180910390fd5b6000600760019054906101000a900473ffffffffffffffffffffffffffffffffffffffff1673ffffffffffffffffffffffffffffffffffffffff1663feaf968c6040518163ffffffff1660e01b815260040160a060405180830381865afa158015610631573d6000803e3d6000fd5b505050506040513d601f19601f820116820180604052508101906106559190611b20565b5050509150506000811361069e576040517f08c379a000000000000000000000000000000000000000000000000000000000815260040161069590611be7565b60405180910390fd5b600081905060006305f5e10082856106b69190611c36565b6106c09190611ca7565b90506106cc3382610cf3565b3373ffffffffffffffffffffffffffffffffffffffff167fc9d4933f8b09b98c56d25d1530eab42158765df45385dda92d195ee37088f3de82876040516107149291906119f7565b60405180910390a2505050610727610ada565b5050565b60006012905090565b61073c610c6c565b610744610d75565b565b6000600760009054906101000a900460ff16905090565b60008060008373ffffffffffffffffffffffffffffffffffffffff1673ffffffffffffffffffffffffffffffffffffffff168152602001908152602001600020549050919050565b6107ad610c6c565b6107b76000610dd8565b565b6107c1610c6c565b6107c9610e9e565b565b6000600560009054906101000a900473ffffffffffffffffffffffffffffffffffffffff16905090565b606060048054610804906118ee565b80601f0160208091040260200160405190810160405280929190818152602001828054610830906118ee565b801561087d5780601f106108525761010080835404028352916020019161087d565b820191906000526020600020905b81548152906001019060200180831161086057829003601f168201915b5050505050905090565b6000806108926109b7565b905061089f818585610b78565b600191505092915050565b6000600160008473ffffffffffffffffffffffffffffffffffffffff1673ffffffffffffffffffffffffffffffffffffffff16815260200190815260200160002060008373ffffffffffffffffffffffffffffffffffffffff1673ffffffffffffffffffffffffffffffffffffffff16815260200190815260200160002054905092915050565b610939610c6c565b600073ffffffffffffffffffffffffffffffffffffffff168173ffffffffffffffffffffffffffffffffffffffff16036109ab5760006040517f1e4fbdf70000000000000000000000000000000000000000000000000000000081526004016109a29190611864565b60405180910390fd5b6109b481610dd8565b50565b600033905090565b6109cc8383836001610f01565b505050565b600260065403610a0d576040517f3ee5aeb500000000000000000000000000000000000000000000000000000000815260040160405180910390fd5b6002600681905550565b610a1f610746565b15610a56576040517fd93c066500000000000000000000000000000000000000000000000000000000815260040160405180910390fd5b565b600073ffffffffffffffffffffffffffffffffffffffff168273ffffffffffffffffffffffffffffffffffffffff1603610aca5760006040517f96c6fd1e000000000000000000000000000000000000000000000000000000008152600401610ac19190611864565b60405180910390fd5b610ad6826000836110d8565b5050565b6001600681905550565b6000610af084846108aa565b90507fffffffffffffffffffffffffffffffffffffffffffffffffffffffffffffffff8114610b725781811015610b62578281836040517ffb8f41b2000000000000000000000000000000000000000000000000000000008152600401610b5993929190611cd8565b60405180910390fd5b610b7184848484036000610f01565b5b50505050565b600073ffffffffffffffffffffffffffffffffffffffff168373ffffffffffffffffffffffffffffffffffffffff1603610bea5760006040517f96c6fd1e000000000000000000000000000000000000000000000000000000008152600401610be19190611864565b60405180910390fd5b600073ffffffffffffffffffffffffffffffffffffffff168273ffffffffffffffffffffffffffffffffffffffff1603610c5c5760006040517fec442f05000000000000000000000000000000000000000000000000000000008152600401610c539190611864565b60405180910390fd5b610c678383836110d8565b505050565b610c746109b7565b73ffffffffffffffffffffffffffffffffffffffff16610c926107cb565b73ffffffffffffffffffffffffffffffffffffffff1614610cf157610cb56109b7565b6040517f118cdaa7000000000000000000000000000000000000000000000000000000008152600401610ce89190611864565b60405180910390fd5b565b600073ffffffffffffffffffffffffffffffffffffffff168273ffffffffffffffffffffffffffffffffffffffff1603610d655760006040517fec442f05000000000000000000000000000000000000000000000000000000008152600401610d5c9190611864565b60405180910390fd5b610d71600083836110d8565b5050565b610d7d6112fd565b6000600760006101000a81548160ff0219169083151502179055507f5db9ee0a495bf2e6ff9c91a7834c1ba4fdd244a5e8aa4e537bd38aeae4b073aa610dc16109b7565b604051610dce9190611864565b60405180910390a1565b6000600560009054906101000a900473ffffffffffffffffffffffffffffffffffffffff16905081600560006101000a81548173ffffffffffffffffffffffffffffffffffffffff021916908373ffffffffffffffffffffffffffffffffffffffff1602179055508173ffffffffffffffffffffffffffffffffffffffff168173ffffffffffffffffffffffffffffffffffffffff167f8be0079c531659141344cd1fd0a4f28419497f9722a3daafe3b4186f6b6457e060405160405180910390a35050565b610ea6610a17565b6001600760006101000a81548160ff0219169083151502179055507f62e78cea01bee320cd4e420270b5ea74000d11b0c9f74754ebdbfc544b05a258610eea6109b7565b604051610ef79190611864565b60405180910390a1565b600073ffffffffffffffffffffffffffffffffffffffff168473ffffffffffffffffffffffffffffffffffffffff1603610f735760006040517fe602df05000000000000000000000000000000000000000000000000000000008152600401610f6a9190611864565b60405180910390fd5b600073ffffffffffffffffffffffffffffffffffffffff168373ffffffffffffffffffffffffffffffffffffffff1603610fe55760006040517f94280d62000000000000000000000000000000000000000000000000000000008152600401610fdc9190611864565b60405180910390fd5b81600160008673ffffffffffffffffffffffffffffffffffffffff1673ffffffffffffffffffffffffffffffffffffffff16815260200190815260200160002060008573ffffffffffffffffffffffffffffffffffffffff1673ffffffffffffffffffffffffffffffffffffffff1681526020019081526020016000208190555080156110d2578273ffffffffffffffffffffffffffffffffffffffff168473ffffffffffffffffffffffffffffffffffffffff167f8c5be1e5ebec7d5bd14f71427d1e84f3dd0314c0f7b2291e5b200ac8c7c3b925846040516110c991906116ad565b60405180910390a35b50505050565b600073ffffffffffffffffffffffffffffffffffffffff168373ffffffffffffffffffffffffffffffffffffffff160361112a57806002600082825461111e9190611d0f565b925050819055506111fd565b60008060008573ffffffffffffffffffffffffffffffffffffffff1673ffffffffffffffffffffffffffffffffffffffff168152602001908152602001600020549050818110156111b6578381836040517fe450d38c0000000000000000000000000000000000000000000000000000000081526004016111ad93929190611cd8565b60405180910390fd5b8181036000808673ffffffffffffffffffffffffffffffffffffffff1673ffffffffffffffffffffffffffffffffffffffff16815260200190815260200160002081905550505b600073ffffffffffffffffffffffffffffffffffffffff168273ffffffffffffffffffffffffffffffffffffffff16036112465780600260008282540392505081905550611293565b806000808473ffffffffffffffffffffffffffffffffffffffff1673ffffffffffffffffffffffffffffffffffffffff168152602001908152602001600020600082825401925050819055505b8173ffffffffffffffffffffffffffffffffffffffff168373ffffffffffffffffffffffffffffffffffffffff167fddf252ad1be2c89b69c2b068fc378daa952ba7f163c4a11628f55a4df523b3ef836040516112f091906116ad565b60405180910390a3505050565b611305610746565b61133b576040517f8dfc202b00000000000000000000000000000000000000000000000000000000815260040160405180910390fd5b565b600081519050919050565b600082825260208201905092915050565b60005b8381101561137757808201518184015260208101905061135c565b60008484015250505050565b6000601f19601f8301169050919050565b600061139f8261133d565b6113a98185611348565b93506113b9818560208601611359565b6113c281611383565b840191505092915050565b600060208201905081810360008301526113e78184611394565b905092915050565b6000604051905090565b600080fd5b600080fd5b600073ffffffffffffffffffffffffffffffffffffffff82169050919050565b600061142e82611403565b9050919050565b61143e81611423565b811461144957600080fd5b50565b60008135905061145b81611435565b92915050565b6000819050919050565b61147481611461565b811461147f57600080fd5b50565b6000813590506114918161146b565b92915050565b600080604083850312156114ae576114ad6113f9565b5b60006114bc8582860161144c565b92505060206114cd85828601611482565b9150509250929050565b60008115159050919050565b6114ec816114d7565b82525050565b600060208201905061150760008301846114e3565b92915050565b600080fd5b600080fd5b7f4e487b7100000000000000000000000000000000000000000000000000000000600052604160045260246000fd5b61154f82611383565b810181811067ffffffffffffffff8211171561156e5761156d611517565b5b80604052505050565b60006115816113ef565b905061158d8282611546565b919050565b600067ffffffffffffffff8211156115ad576115ac611517565b5b6115b682611383565b9050602081019050919050565b82818337600083830152505050565b60006115e56115e084611592565b611577565b90508281526020810184848401111561160157611600611512565b5b61160c8482856115c3565b509392505050565b600082601f8301126116295761162861150d565b5b81356116398482602086016115d2565b91505092915050565b60008060408385031215611659576116586113f9565b5b600061166785828601611482565b925050602083013567ffffffffffffffff811115611688576116876113fe565b5b61169485828601611614565b9150509250929050565b6116a781611461565b82525050565b60006020820190506116c2600083018461169e565b92915050565b6000819050919050565b60006116ed6116e86116e384611403565b6116c8565b611403565b9050919050565b60006116ff826116d2565b9050919050565b6000611711826116f4565b9050919050565b61172181611706565b82525050565b600060208201905061173c6000830184611718565b92915050565b60008060006060848603121561175b5761175a6113f9565b5b60006117698682870161144c565b935050602061177a8682870161144c565b925050604061178b86828701611482565b9150509250925092565b600080604083850312156117ac576117ab6113f9565b5b600083013567ffffffffffffffff8111156117ca576117c96113fe565b5b6117d685828601611614565b92505060206117e785828601611482565b9150509250929050565b600060ff82169050919050565b611807816117f1565b82525050565b600060208201905061182260008301846117fe565b92915050565b60006020828403121561183e5761183d6113f9565b5b600061184c8482850161144c565b91505092915050565b61185e81611423565b82525050565b60006020820190506118796000830184611855565b92915050565b60008060408385031215611896576118956113f9565b5b60006118a48582860161144c565b92505060206118b58582860161144c565b9150509250929050565b7f4e487b7100000000000000000000000000000000000000000000000000000000600052602260045260246000fd5b6000600282049050600182168061190657607f821691505b602082108103611919576119186118bf565b5b50919050565b7f496e76616c696420634b455320616d6f756e7400000000000000000000000000600082015250565b6000611955601383611348565b91506119608261191f565b602082019050919050565b6000602082019050818103600083015261198481611948565b9050919050565b7f496e73756666696369656e7420634b45532062616c616e636500000000000000600082015250565b60006119c1601983611348565b91506119cc8261198b565b602082019050919050565b600060208201905081810360008301526119f0816119b4565b9050919050565b6000604082019050611a0c600083018561169e565b8181036020830152611a1e8184611394565b90509392505050565b7f496e76616c6964206669617420616d6f756e7400000000000000000000000000600082015250565b6000611a5d601383611348565b9150611a6882611a27565b602082019050919050565b60006020820190508181036000830152611a8c81611a50565b9050919050565b600069ffffffffffffffffffff82169050919050565b611ab281611a93565b8114611abd57600080fd5b50565b600081519050611acf81611aa9565b92915050565b6000819050919050565b611ae881611ad5565b8114611af357600080fd5b50565b600081519050611b0581611adf565b92915050565b600081519050611b1a8161146b565b92915050565b600080600080600060a08688031215611b3c57611b3b6113f9565b5b6000611b4a88828901611ac0565b9550506020611b5b88828901611af6565b9450506040611b6c88828901611b0b565b9350506060611b7d88828901611b0b565b9250506080611b8e88828901611ac0565b9150509295509295909350565b7f496e76616c696420707269636520666565642064617461000000000000000000600082015250565b6000611bd1601783611348565b9150611bdc82611b9b565b602082019050919050565b60006020820190508181036000830152611c0081611bc4565b9050919050565b7f4e487b7100000000000000000000000000000000000000000000000000000000600052601160045260246000fd5b6000611c4182611461565b9150611c4c83611461565b9250828202611c5a81611461565b91508282048414831517611c7157611c70611c07565b5b5092915050565b7f4e487b7100000000000000000000000000000000000000000000000000000000600052601260045260246000fd5b6000611cb282611461565b9150611cbd83611461565b925082611ccd57611ccc611c78565b5b828204905092915050565b6000606082019050611ced6000830186611855565b611cfa602083018561169e565b611d07604083018461169e565b949350505050565b6000611d1a82611461565b9150611d2583611461565b9250828201905080821115611d3d57611d3c611c07565b5b9291505056fea2646970667358221220b9fd4e5d09e835e8242418b233a6e4bc627ede99bd3830b8a897910bc0e7cc9e64736f6c63430008180033",
  "linkReferences": {},
  "deployedLinkReferences": {}
}